{
  "address": "0x4c5859f0F772848b2D91F1D83E2Fe57935348029",
  "abi": [
    {
      "inputs": [
        {
          "internalType": "address[]",
          "name": "addresses",
          "type": "address[]"
        },
        {
          "internalType": "address",
          "name": "joeRouterV2Address",
          "type": "address"
        },
        {
          "internalType": "address",
          "name": "nodeControllerAddress",
          "type": "address"
        }
      ],
      "stateMutability": "nonpayable",
      "type": "constructor"
    },
    {
      "anonymous": false,
      "inputs": [
        {
          "indexed": true,
          "internalType": "address",
          "name": "owner",
          "type": "address"
        },
        {
          "indexed": true,
          "internalType": "address",
          "name": "spender",
          "type": "address"
        },
        {
          "indexed": false,
          "internalType": "uint256",
          "name": "value",
          "type": "uint256"
        }
      ],
      "name": "Approval",
      "type": "event"
    },
    {
      "anonymous": false,
      "inputs": [
        {
          "indexed": true,
          "internalType": "address",
          "name": "newLiquidityWallet",
          "type": "address"
        },
        {
          "indexed": true,
          "internalType": "address",
          "name": "oldLiquidityWallet",
          "type": "address"
        }
      ],
      "name": "LiquidityWalletUpdated",
      "type": "event"
    },
    {
      "anonymous": false,
      "inputs": [
        {
          "indexed": true,
          "internalType": "address",
          "name": "previousOwner",
          "type": "address"
        },
        {
          "indexed": true,
          "internalType": "address",
          "name": "newOwner",
          "type": "address"
        }
      ],
      "name": "OwnershipTransferred",
      "type": "event"
    },
    {
      "anonymous": false,
      "inputs": [
        {
          "indexed": true,
          "internalType": "address",
          "name": "pair",
          "type": "address"
        },
        {
          "indexed": true,
          "internalType": "bool",
          "name": "value",
          "type": "bool"
        }
      ],
      "name": "SetAutomatedMarketMakerPair",
      "type": "event"
    },
    {
      "anonymous": false,
      "inputs": [
        {
          "indexed": false,
          "internalType": "uint256",
          "name": "tokensSwapped",
          "type": "uint256"
        },
        {
          "indexed": false,
          "internalType": "uint256",
          "name": "ethReceived",
          "type": "uint256"
        },
        {
          "indexed": false,
          "internalType": "uint256",
          "name": "tokensIntoLiqudity",
          "type": "uint256"
        }
      ],
      "name": "SwapAndLiquify",
      "type": "event"
    },
    {
      "anonymous": false,
      "inputs": [
        {
          "indexed": true,
          "internalType": "address",
          "name": "from",
          "type": "address"
        },
        {
          "indexed": true,
          "internalType": "address",
          "name": "to",
          "type": "address"
        },
        {
          "indexed": false,
          "internalType": "uint256",
          "name": "value",
          "type": "uint256"
        }
      ],
      "name": "Transfer",
      "type": "event"
    },
    {
      "anonymous": false,
      "inputs": [
        {
          "indexed": true,
          "internalType": "address",
          "name": "newAddress",
          "type": "address"
        },
        {
          "indexed": true,
          "internalType": "address",
          "name": "oldAddress",
          "type": "address"
        }
      ],
      "name": "UpdateUniswapV2Router",
      "type": "event"
    },
    {
      "inputs": [
        {
          "internalType": "address",
          "name": "",
          "type": "address"
        }
      ],
      "name": "_isBlacklisted",
      "outputs": [
        {
          "internalType": "bool",
          "name": "",
          "type": "bool"
        }
      ],
      "stateMutability": "view",
      "type": "function"
    },
    {
      "inputs": [
        {
          "internalType": "address",
          "name": "owner",
          "type": "address"
        },
        {
          "internalType": "address",
          "name": "spender",
          "type": "address"
        }
      ],
      "name": "allowance",
      "outputs": [
        {
          "internalType": "uint256",
          "name": "",
          "type": "uint256"
        }
      ],
      "stateMutability": "view",
      "type": "function"
    },
    {
      "inputs": [
        {
          "internalType": "address",
          "name": "spender",
          "type": "address"
        },
        {
          "internalType": "uint256",
          "name": "amount",
          "type": "uint256"
        }
      ],
      "name": "approve",
      "outputs": [
        {
          "internalType": "bool",
          "name": "",
          "type": "bool"
        }
      ],
      "stateMutability": "nonpayable",
      "type": "function"
    },
    {
      "inputs": [
        {
          "internalType": "address",
          "name": "",
          "type": "address"
        }
      ],
      "name": "automatedMarketMakerPairs",
      "outputs": [
        {
          "internalType": "bool",
          "name": "",
          "type": "bool"
        }
      ],
      "stateMutability": "view",
      "type": "function"
    },
    {
      "inputs": [
        {
          "internalType": "address",
          "name": "account",
          "type": "address"
        }
      ],
      "name": "balanceOf",
      "outputs": [
        {
          "internalType": "uint256",
          "name": "",
          "type": "uint256"
        }
      ],
      "stateMutability": "view",
      "type": "function"
    },
    {
      "inputs": [
        {
          "internalType": "address",
          "name": "account",
          "type": "address"
        },
        {
          "internalType": "bool",
          "name": "value",
          "type": "bool"
        }
      ],
      "name": "blacklistMalicious",
      "outputs": [],
      "stateMutability": "nonpayable",
      "type": "function"
    },
    {
      "inputs": [
        {
          "internalType": "uint256",
          "name": "amount",
          "type": "uint256"
        }
      ],
      "name": "boostReward",
      "outputs": [],
      "stateMutability": "nonpayable",
      "type": "function"
    },
    {
      "inputs": [],
      "name": "cashoutAll",
      "outputs": [],
      "stateMutability": "nonpayable",
      "type": "function"
    },
    {
      "inputs": [],
      "name": "cashoutPool",
      "outputs": [
        {
          "internalType": "address",
          "name": "",
          "type": "address"
        }
      ],
      "stateMutability": "view",
      "type": "function"
    },
    {
      "inputs": [
        {
          "internalType": "uint256",
          "name": "blocktime",
          "type": "uint256"
        }
      ],
      "name": "cashoutReward",
      "outputs": [],
      "stateMutability": "nonpayable",
      "type": "function"
    },
    {
      "inputs": [
        {
          "internalType": "uint256",
          "name": "_amount",
          "type": "uint256"
        }
      ],
      "name": "cashoutSpecificReward",
      "outputs": [],
      "stateMutability": "nonpayable",
      "type": "function"
    },
    {
      "inputs": [
        {
          "internalType": "bool",
          "name": "newMode",
          "type": "bool"
        }
      ],
      "name": "changeAutoDistri",
      "outputs": [],
      "stateMutability": "nonpayable",
      "type": "function"
    },
    {
      "inputs": [
        {
          "internalType": "uint256",
          "name": "newTime",
          "type": "uint256"
        }
      ],
      "name": "changeClaimTime",
      "outputs": [],
      "stateMutability": "nonpayable",
      "type": "function"
    },
    {
      "inputs": [
        {
          "internalType": "uint256",
          "name": "newGasDistri",
          "type": "uint256"
        }
      ],
      "name": "changeGasDistri",
      "outputs": [],
      "stateMutability": "nonpayable",
      "type": "function"
    },
    {
      "inputs": [
        {
          "internalType": "uint256",
          "name": "newNodePrice",
          "type": "uint256"
        }
      ],
      "name": "changeNodePrice",
      "outputs": [],
      "stateMutability": "nonpayable",
      "type": "function"
    },
    {
      "inputs": [
        {
          "internalType": "uint256",
          "name": "newPrice",
          "type": "uint256"
        }
      ],
      "name": "changeRewardPerNode",
      "outputs": [],
      "stateMutability": "nonpayable",
      "type": "function"
    },
    {
      "inputs": [
        {
          "internalType": "bool",
          "name": "newVal",
          "type": "bool"
        }
      ],
      "name": "changeSwapLiquify",
      "outputs": [],
      "stateMutability": "nonpayable",
      "type": "function"
    },
    {
      "inputs": [
        {
          "internalType": "uint256",
          "name": "amount",
          "type": "uint256"
        }
      ],
      "name": "compound",
      "outputs": [],
      "stateMutability": "nonpayable",
      "type": "function"
    },
    {
      "inputs": [
        {
          "internalType": "string",
          "name": "name",
          "type": "string"
        }
      ],
      "name": "createNodeWithTokens",
      "outputs": [],
      "stateMutability": "nonpayable",
      "type": "function"
    },
    {
      "inputs": [],
      "name": "deadWallet",
      "outputs": [
        {
          "internalType": "address",
          "name": "",
          "type": "address"
        }
      ],
      "stateMutability": "view",
      "type": "function"
    },
    {
      "inputs": [],
      "name": "decimals",
      "outputs": [
        {
          "internalType": "uint8",
          "name": "",
          "type": "uint8"
        }
      ],
      "stateMutability": "view",
      "type": "function"
    },
    {
      "inputs": [
        {
          "internalType": "address",
          "name": "spender",
          "type": "address"
        },
        {
          "internalType": "uint256",
          "name": "subtractedValue",
          "type": "uint256"
        }
      ],
      "name": "decreaseAllowance",
      "outputs": [
        {
          "internalType": "bool",
          "name": "",
          "type": "bool"
        }
      ],
      "stateMutability": "nonpayable",
      "type": "function"
    },
    {
      "inputs": [],
      "name": "distributeRewards",
      "outputs": [
        {
          "internalType": "uint256",
          "name": "",
          "type": "uint256"
        },
        {
          "internalType": "uint256",
          "name": "",
          "type": "uint256"
        },
        {
          "internalType": "uint256",
          "name": "",
          "type": "uint256"
        }
      ],
      "stateMutability": "nonpayable",
      "type": "function"
    },
    {
      "inputs": [],
      "name": "distributionPool",
      "outputs": [
        {
          "internalType": "address",
          "name": "",
          "type": "address"
        }
      ],
      "stateMutability": "view",
      "type": "function"
    },
    {
      "inputs": [],
      "name": "expenseFee",
      "outputs": [
        {
          "internalType": "uint256",
          "name": "",
          "type": "uint256"
        }
      ],
      "stateMutability": "view",
      "type": "function"
    },
    {
      "inputs": [],
      "name": "expensePool",
      "outputs": [
        {
          "internalType": "address",
          "name": "",
          "type": "address"
        }
      ],
      "stateMutability": "view",
      "type": "function"
    },
    {
      "inputs": [],
      "name": "getAutoDistri",
      "outputs": [
        {
          "internalType": "bool",
          "name": "",
          "type": "bool"
        }
      ],
      "stateMutability": "view",
      "type": "function"
    },
    {
      "inputs": [],
      "name": "getClaimTime",
      "outputs": [
        {
          "internalType": "uint256",
          "name": "",
          "type": "uint256"
        }
      ],
      "stateMutability": "view",
      "type": "function"
    },
    {
      "inputs": [],
      "name": "getDistriCount",
      "outputs": [
        {
          "internalType": "uint256",
          "name": "",
          "type": "uint256"
        }
      ],
      "stateMutability": "view",
      "type": "function"
    },
    {
      "inputs": [],
      "name": "getGasDistri",
      "outputs": [
        {
          "internalType": "uint256",
          "name": "",
          "type": "uint256"
        }
      ],
      "stateMutability": "view",
      "type": "function"
    },
    {
      "inputs": [
        {
          "internalType": "address",
          "name": "account",
          "type": "address"
        }
      ],
      "name": "getNodeNumberOf",
      "outputs": [
        {
          "internalType": "uint256",
          "name": "",
          "type": "uint256"
        }
      ],
      "stateMutability": "view",
      "type": "function"
    },
    {
      "inputs": [],
      "name": "getNodePrice",
      "outputs": [
        {
          "internalType": "uint256",
          "name": "",
          "type": "uint256"
        }
      ],
      "stateMutability": "view",
      "type": "function"
    },
    {
      "inputs": [],
      "name": "getNodesCreatime",
      "outputs": [
        {
          "internalType": "string",
          "name": "",
          "type": "string"
        }
      ],
      "stateMutability": "view",
      "type": "function"
    },
    {
      "inputs": [],
      "name": "getNodesLastClaims",
      "outputs": [
        {
          "internalType": "string",
          "name": "",
          "type": "string"
        }
      ],
      "stateMutability": "view",
      "type": "function"
    },
    {
      "inputs": [],
      "name": "getNodesNames",
      "outputs": [
        {
          "internalType": "string",
          "name": "",
          "type": "string"
        }
      ],
      "stateMutability": "view",
      "type": "function"
    },
    {
      "inputs": [],
      "name": "getNodesRewards",
      "outputs": [
        {
          "internalType": "string",
          "name": "",
          "type": "string"
        }
      ],
      "stateMutability": "view",
      "type": "function"
    },
    {
      "inputs": [],
      "name": "getRewardAmount",
      "outputs": [
        {
          "internalType": "uint256",
          "name": "",
          "type": "uint256"
        }
      ],
      "stateMutability": "view",
      "type": "function"
    },
    {
      "inputs": [
        {
          "internalType": "address",
          "name": "account",
          "type": "address"
        }
      ],
      "name": "getRewardAmountOf",
      "outputs": [
        {
          "internalType": "uint256",
          "name": "",
          "type": "uint256"
        }
      ],
      "stateMutability": "view",
      "type": "function"
    },
    {
      "inputs": [],
      "name": "getRewardPerNode",
      "outputs": [
        {
          "internalType": "uint256",
          "name": "",
          "type": "uint256"
        }
      ],
      "stateMutability": "view",
      "type": "function"
    },
    {
      "inputs": [],
      "name": "getTotalCreatedNodes",
      "outputs": [
        {
          "internalType": "uint256",
          "name": "",
          "type": "uint256"
        }
      ],
      "stateMutability": "view",
      "type": "function"
    },
    {
      "inputs": [],
      "name": "getTotalStakedReward",
      "outputs": [
        {
          "internalType": "uint256",
          "name": "",
          "type": "uint256"
        }
      ],
      "stateMutability": "view",
      "type": "function"
    },
    {
      "inputs": [
        {
          "internalType": "address",
          "name": "spender",
          "type": "address"
        },
        {
          "internalType": "uint256",
          "name": "addedValue",
          "type": "uint256"
        }
      ],
      "name": "increaseAllowance",
      "outputs": [
        {
          "internalType": "bool",
          "name": "",
          "type": "bool"
        }
      ],
      "stateMutability": "nonpayable",
      "type": "function"
    },
    {
      "inputs": [],
      "name": "liquidityPoolFee",
      "outputs": [
        {
          "internalType": "uint256",
          "name": "",
          "type": "uint256"
        }
      ],
      "stateMutability": "view",
      "type": "function"
    },
    {
      "inputs": [],
      "name": "marketingFee",
      "outputs": [
        {
          "internalType": "uint256",
          "name": "",
          "type": "uint256"
        }
      ],
      "stateMutability": "view",
      "type": "function"
    },
    {
      "inputs": [],
      "name": "marketingPool",
      "outputs": [
        {
          "internalType": "address",
          "name": "",
          "type": "address"
        }
      ],
      "stateMutability": "view",
      "type": "function"
    },
    {
      "inputs": [],
      "name": "name",
      "outputs": [
        {
          "internalType": "string",
          "name": "",
          "type": "string"
        }
      ],
      "stateMutability": "view",
      "type": "function"
    },
    {
      "inputs": [],
      "name": "nodeRewardManager",
      "outputs": [
        {
          "internalType": "contract NodeRewardController",
          "name": "",
          "type": "address"
        }
      ],
      "stateMutability": "view",
      "type": "function"
    },
    {
      "inputs": [],
      "name": "owner",
      "outputs": [
        {
          "internalType": "address",
          "name": "",
          "type": "address"
        }
      ],
      "stateMutability": "view",
      "type": "function"
    },
    {
      "inputs": [],
      "name": "publiDistriRewards",
      "outputs": [],
      "stateMutability": "nonpayable",
      "type": "function"
    },
    {
      "inputs": [
        {
          "internalType": "string",
          "name": "oldName",
          "type": "string"
        },
        {
          "internalType": "string",
          "name": "newName",
          "type": "string"
        }
      ],
      "name": "renameNode",
      "outputs": [],
      "stateMutability": "nonpayable",
      "type": "function"
    },
    {
      "inputs": [],
      "name": "renounceOwnership",
      "outputs": [],
      "stateMutability": "nonpayable",
      "type": "function"
    },
    {
      "inputs": [],
      "name": "rewardsFee",
      "outputs": [
        {
          "internalType": "uint256",
          "name": "",
          "type": "uint256"
        }
      ],
      "stateMutability": "view",
      "type": "function"
    },
    {
      "inputs": [],
      "name": "sellFee",
      "outputs": [
        {
          "internalType": "uint256",
          "name": "",
          "type": "uint256"
        }
      ],
      "stateMutability": "view",
      "type": "function"
    },
    {
      "inputs": [
        {
          "internalType": "address",
          "name": "pair",
          "type": "address"
        },
        {
          "internalType": "bool",
          "name": "value",
          "type": "bool"
        }
      ],
      "name": "setAutomatedMarketMakerPair",
      "outputs": [],
      "stateMutability": "nonpayable",
      "type": "function"
    },
    {
      "inputs": [
        {
          "internalType": "address",
          "name": "account",
          "type": "address"
        },
        {
          "internalType": "bool",
          "name": "value",
          "type": "bool"
        }
      ],
      "name": "setExcludedFromFee",
      "outputs": [],
      "stateMutability": "nonpayable",
      "type": "function"
    },
    {
      "inputs": [
        {
          "internalType": "address",
          "name": "nodeManagement",
          "type": "address"
        }
      ],
      "name": "setNodeManagement",
      "outputs": [],
      "stateMutability": "nonpayable",
      "type": "function"
    },
    {
      "inputs": [],
      "name": "swapTokensAmount",
      "outputs": [
        {
          "internalType": "uint256",
          "name": "",
          "type": "uint256"
        }
      ],
      "stateMutability": "view",
      "type": "function"
    },
    {
      "inputs": [],
      "name": "symbol",
      "outputs": [
        {
          "internalType": "string",
          "name": "",
          "type": "string"
        }
      ],
      "stateMutability": "view",
      "type": "function"
    },
    {
      "inputs": [],
      "name": "totalFees",
      "outputs": [
        {
          "internalType": "uint256",
          "name": "",
          "type": "uint256"
        }
      ],
      "stateMutability": "view",
      "type": "function"
    },
    {
      "inputs": [],
      "name": "totalSupply",
      "outputs": [
        {
          "internalType": "uint256",
          "name": "",
          "type": "uint256"
        }
      ],
      "stateMutability": "view",
      "type": "function"
    },
    {
      "inputs": [
        {
          "internalType": "address",
          "name": "recipient",
          "type": "address"
        },
        {
          "internalType": "uint256",
          "name": "amount",
          "type": "uint256"
        }
      ],
      "name": "transfer",
      "outputs": [
        {
          "internalType": "bool",
          "name": "",
          "type": "bool"
        }
      ],
      "stateMutability": "nonpayable",
      "type": "function"
    },
    {
      "inputs": [
        {
          "internalType": "address",
          "name": "sender",
          "type": "address"
        },
        {
          "internalType": "address",
          "name": "recipient",
          "type": "address"
        },
        {
          "internalType": "uint256",
          "name": "amount",
          "type": "uint256"
        }
      ],
      "name": "transferFrom",
      "outputs": [
        {
          "internalType": "bool",
          "name": "",
          "type": "bool"
        }
      ],
      "stateMutability": "nonpayable",
      "type": "function"
    },
    {
      "inputs": [
        {
          "internalType": "address",
          "name": "to",
          "type": "address"
        },
        {
          "internalType": "string",
          "name": "nodeName",
          "type": "string"
        }
      ],
      "name": "transferNode",
      "outputs": [
        {
          "internalType": "bool",
          "name": "",
          "type": "bool"
        }
      ],
      "stateMutability": "nonpayable",
      "type": "function"
    },
    {
      "inputs": [
        {
          "internalType": "address",
          "name": "newOwner",
          "type": "address"
        }
      ],
      "name": "transferOwnership",
      "outputs": [],
      "stateMutability": "nonpayable",
      "type": "function"
    },
    {
      "inputs": [],
      "name": "treasuryPool",
      "outputs": [
        {
          "internalType": "address",
          "name": "",
          "type": "address"
        }
      ],
      "stateMutability": "view",
      "type": "function"
    },
    {
      "inputs": [],
      "name": "uniswapV2Pair",
      "outputs": [
        {
          "internalType": "address",
          "name": "",
          "type": "address"
        }
      ],
      "stateMutability": "view",
      "type": "function"
    },
    {
      "inputs": [],
      "name": "uniswapV2Router",
      "outputs": [
        {
          "internalType": "contract IJoeRouter02",
          "name": "",
          "type": "address"
        }
      ],
      "stateMutability": "view",
      "type": "function"
    },
    {
      "inputs": [
        {
          "internalType": "address payable",
          "name": "wall",
          "type": "address"
        }
      ],
      "name": "updateCashoutWall",
      "outputs": [],
      "stateMutability": "nonpayable",
      "type": "function"
    },
    {
      "inputs": [
        {
          "internalType": "address payable",
          "name": "wall",
          "type": "address"
        }
      ],
      "name": "updateExpenseWall",
      "outputs": [],
      "stateMutability": "nonpayable",
      "type": "function"
    },
    {
      "inputs": [
        {
          "internalType": "uint256",
          "name": "value",
          "type": "uint256"
        }
      ],
      "name": "updateFuturFee",
      "outputs": [],
      "stateMutability": "nonpayable",
      "type": "function"
    },
    {
      "inputs": [
        {
          "internalType": "uint256",
          "name": "value",
          "type": "uint256"
        }
      ],
      "name": "updateLiquiditFee",
      "outputs": [],
      "stateMutability": "nonpayable",
      "type": "function"
    },
    {
      "inputs": [
        {
          "internalType": "uint256",
          "name": "value",
          "type": "uint256"
        }
      ],
      "name": "updateMarketingFee",
      "outputs": [],
      "stateMutability": "nonpayable",
      "type": "function"
    },
    {
      "inputs": [
        {
          "internalType": "address payable",
          "name": "wall",
          "type": "address"
        }
      ],
      "name": "updateMarketingWall",
      "outputs": [],
      "stateMutability": "nonpayable",
      "type": "function"
    },
    {
      "inputs": [
        {
          "internalType": "uint256",
          "name": "value",
          "type": "uint256"
        }
      ],
      "name": "updateRewardsFee",
      "outputs": [],
      "stateMutability": "nonpayable",
      "type": "function"
    },
    {
      "inputs": [
        {
          "internalType": "address payable",
          "name": "wall",
          "type": "address"
        }
      ],
      "name": "updateRewardsWall",
      "outputs": [],
      "stateMutability": "nonpayable",
      "type": "function"
    },
    {
      "inputs": [
        {
          "internalType": "uint256",
          "name": "value",
          "type": "uint256"
        }
      ],
      "name": "updateRwSwapFee",
      "outputs": [],
      "stateMutability": "nonpayable",
      "type": "function"
    },
    {
      "inputs": [
        {
          "internalType": "uint256",
          "name": "value",
          "type": "uint256"
        }
      ],
      "name": "updateSellFee",
      "outputs": [],
      "stateMutability": "nonpayable",
      "type": "function"
    },
    {
      "inputs": [
        {
          "internalType": "uint256",
          "name": "newVal",
          "type": "uint256"
        }
      ],
      "name": "updateSwapTokensAmount",
      "outputs": [],
      "stateMutability": "nonpayable",
      "type": "function"
    }
  ],
  "transactionHash": "0x7eacbb7da48d1d32bc36c9ec222a67b255e749664b1b92ca884481df5bca9911",
  "args": [
    [
      "0x3C44CdDdB6a900fa2b585dd299e03d12FA4293BC",
      "0x90F79bf6EB2c4f870365E785982E1f101E93b906",
      "0x15d34AAf54267DB7D7c367839AAf71A00a2C6A65",
      "0x9965507D1a55bcC2695C58ba16FB37d819B0A4dc",
      "0x976EA74026E726554dB657fA54763abd0C3a0aa9"
    ],
    "0x60aE616a2155Ee3d9A68541Ba4544862310933d4",
    "0x809d550fca64d94Bd9F66E60752A544199cfAC3D"
  ],
  "numDeployments": 1,
  "solcInputHash": "82d81100ba75a9be14065cf941aec283",
  "bytecode": "0x6080604052600e80546001600160a01b03191661dead1790556016805461ffff1916610100179055681043561a88293000006017556c0c9f2c9cd04674edea400000006018553480156200005257600080fd5b5060405162004bdf38038062004bdf83398101604081905262000075916200086f565b604080518082018252600981526822b0b9bcaa37b5b2b760b91b6020808301918252835180850190945260048452634541535960e01b908401528151919291620000c2916003916200078f565b508051620000d89060049060208401906200078f565b505050620000f5620000ef6200063f60201b60201c565b62000643565b82516005146200014c5760405162461bcd60e51b815260206004820152601c60248201527f436f756e74206f6620416464726573736573206d75737420626520350000000060448201526064015b60405180910390fd5b600680546001600160a01b0319166001600160a01b038316179055825183906000906200018957634e487b7160e01b600052603260045260246000fd5b6020026020010151600c60006101000a8154816001600160a01b0302191690836001600160a01b0316021790555082600181518110620001d957634e487b7160e01b600052603260045260246000fd5b6020026020010151600a60006101000a8154816001600160a01b0302191690836001600160a01b03160217905550826002815181106200022957634e487b7160e01b600052603260045260246000fd5b6020026020010151600b60006101000a8154816001600160a01b0302191690836001600160a01b03160217905550826003815181106200027957634e487b7160e01b600052603260045260246000fd5b6020026020010151600960006101000a8154816001600160a01b0302191690836001600160a01b0316021790555082600481518110620002c957634e487b7160e01b600052603260045260246000fd5b6020026020010151600d60006101000a8154816001600160a01b0302191690836001600160a01b0316021790555060005b600581101562000372576001601b60008684815181106200032b57634e487b7160e01b600052603260045260246000fd5b6020908102919091018101516001600160a01b03168252810191909152604001600020805460ff1916911515919091179055806200036981620009c1565b915050620002fa565b506009546001600160a01b031615801590620003985750600a546001600160a01b031615155b620003f45760405162461bcd60e51b815260206004820152602560248201527f465554555220262052455741524420414444524553532043414e4e4f54204245604482015264205a45524f60d81b606482015260840162000143565b603c600f819055601e601081905560056014819055601181905560158290556200044a9290916200043691839183919062000695602090811b62002e3d17901c565b6200069560201b62002e3d1790919060201c565b601255600c5460185462000468916001600160a01b031690620006aa565b600780546001600160a01b0319166001600160a01b0384169081179091556040805163c45a015560e01b8152905163c45a015591600480820192602092909190829003018186803b158015620004bd57600080fd5b505afa158015620004d2573d6000803e3d6000fd5b505050506040513d601f19601f82011682018060405250810190620004f8919062000852565b6001600160a01b031663c9c6539630600760009054906101000a90046001600160a01b03166001600160a01b03166373b295c26040518163ffffffff1660e01b815260040160206040518083038186803b1580156200055657600080fd5b505afa1580156200056b573d6000803e3d6000fd5b505050506040513d601f19601f8201168201806040525081019062000591919062000852565b6040516001600160e01b031960e085901b1681526001600160a01b03928316600482015291166024820152604401602060405180830381600087803b158015620005da57600080fd5b505af1158015620005ef573d6000803e3d6000fd5b505050506040513d601f19601f8201168201806040525081019062000615919062000852565b600880546001600160a01b0319166001600160a01b03929092169190911790555062000a0b915050565b3390565b600580546001600160a01b038381166001600160a01b0319831681179093556040519116919082907f8be0079c531659141344cd1fd0a4f28419497f9722a3daafe3b4186f6b6457e090600090a35050565b6000620006a3828462000969565b9392505050565b6001600160a01b038216620007025760405162461bcd60e51b815260206004820152601f60248201527f45524332303a206d696e7420746f20746865207a65726f206164647265737300604482015260640162000143565b806002600082825462000716919062000969565b90915550506001600160a01b038216600090815260208190526040812080548392906200074590849062000969565b90915550506040518181526001600160a01b038316906000907fddf252ad1be2c89b69c2b068fc378daa952ba7f163c4a11628f55a4df523b3ef9060200160405180910390a35050565b8280546200079d9062000984565b90600052602060002090601f016020900481019282620007c157600085556200080c565b82601f10620007dc57805160ff19168380011785556200080c565b828001600101855582156200080c579182015b828111156200080c578251825591602001919060010190620007ef565b506200081a9291506200081e565b5090565b5b808211156200081a57600081556001016200081f565b80516001600160a01b03811681146200084d57600080fd5b919050565b60006020828403121562000864578081fd5b620006a38262000835565b60008060006060848603121562000884578182fd5b83516001600160401b03808211156200089b578384fd5b818601915086601f830112620008af578384fd5b8151602082821115620008c657620008c6620009f5565b8160051b604051601f19603f83011681018181108682111715620008ee57620008ee620009f5565b604052838152828101945085830182870184018c10156200090d578889fd5b8896505b848710156200093a57620009258162000835565b86526001969096019594830194830162000911565b5097506200094c905088820162000835565b955050505050620009606040850162000835565b90509250925092565b600082198211156200097f576200097f620009df565b500190565b600181811c908216806200099957607f821691505b60208210811415620009bb57634e487b7160e01b600052602260045260246000fd5b50919050565b6000600019821415620009d857620009d8620009df565b5060010190565b634e487b7160e01b600052601160045260246000fd5b634e487b7160e01b600052604160045260246000fd5b6141c48062000a1b6000396000f3fe608060405234801561001057600080fd5b506004361061046a5760003560e01c80637e8100c01161024c578063b62496f511610146578063da41b333116100c3578063f5a0725611610087578063f5a0725614610998578063f74c9934146109a0578063f7b9f943146109b3578063f9afc763146109bb578063fb0a7494146109c357600080fd5b8063da41b33314610934578063db3ad6b51461093c578063dd62ed3e14610944578063ee1afdbf1461097d578063f2fde38b1461098557600080fd5b8063c5ca7d6d1161010a578063c5ca7d6d146108d5578063cf382877146108e8578063d0c298b3146108fb578063d0f774741461090e578063d89293421461092157600080fd5b8063b62496f514610871578063b96392c114610894578063bbc7d0b9146108a7578063bdf24a53146108ba578063c04b4637146108c257600080fd5b8063938bc811116101d4578063a0a8fe6511610198578063a0a8fe6514610828578063a457c2d714610830578063a5021a1714610843578063a9059cbb1461084b578063aa5f7e261461085e57600080fd5b8063938bc811146107d457806395d89b41146107e75780639a7a23d6146107ef5780639b87682a146108025780639c82751c1461081557600080fd5b806388c41d7c1161021b57806388c41d7c146107775780638bc9c7b01461078a5780638da5cb5b1461079d5780638f0ba4ca146107ae5780639349c47d146107c157600080fd5b80637e8100c0146107405780638013858b1461074957806385141a771461075c5780638743ef6d1461076f57600080fd5b806342bc9fca116103685780635f1c3182116102e55780636f4a2cd0116102a95780636f4a2cd0146106c657806370a08231146106e9578063715018a6146107125780637628b3d71461071a5780637b7703921461072d57600080fd5b80635f1c31821461067b57806365bfe430146106845780636612e66f146106975780636770474b146106aa5780636b67c4df146106bd57600080fd5b806354f12f1f1161032c57806354f12f1f14610631578063583bd7a61461063a57806359640ed91461064d5780635a63ddbb146106605780635b0d46741461067357600080fd5b806342bc9fca146105e857806348df5829146105fb57806348e5642b1461060e57806349bd5a5e14610616578063545579731461062957600080fd5b806318160ddd116103f65780632bb14e1d116103ba5780632bb14e1d14610597578063313ce567146105a05780633655af8c146105af57806339509351146105c25780634195fbf3146105d557600080fd5b806318160ddd1461053d5780631cdd3be3146105455780631d933a4a1461056857806323b872dd1461057b5780632b14ca561461058e57600080fd5b806309a69f571161043d57806309a69f57146104d85780630ab38aa3146104ee57806313114a9d14610501578063138a634a1461050a5780631694505e1461051257600080fd5b8063016cffb21461046f57806306fdde0314610484578063084a6bff146104a2578063095ea7b3146104b5575b600080fd5b61048261047d3660046138d7565b6109d6565b005b61048c610a2b565b6040516104999190613cee565b60405180910390f35b6104826104b0366004613b62565b610abd565b6104c86104c3366004613a02565b610b13565b6040519015158152602001610499565b6104e0610b2b565b604051908152602001610499565b6104826104fc3660046138d7565b610c7d565b6104e060125481565b61048c610cc9565b600754610525906001600160a01b031681565b6040516001600160a01b039091168152602001610499565b6002546104e0565b6104c86105533660046138d7565b60196020526000908152604090205460ff1681565b610482610576366004613b62565b610e1b565b6104c8610589366004613947565b610e4a565b6104e060135481565b6104e0600f5481565b60405160128152602001610499565b6104826105bd366004613b62565b610e8f565b6104c86105d0366004613a02565b61109d565b6104826105e3366004613b62565b6110d7565b6104826105f6366004613b62565b61114a565b600c54610525906001600160a01b031681565b6104e0611193565b600854610525906001600160a01b031681565b6104826111d8565b6104e060105481565b610482610648366004613a2d565b6113ff565b61048261065b366004613b62565b611443565b600954610525906001600160a01b031681565b61048c6114cf565b6104e060175481565b610482610692366004613b62565b6115aa565b6104826106a5366004613987565b61181c565b6104826106b8366004613b62565b611871565b6104e060145481565b6106ce6118a0565b60408051938452602084019290925290820152606001610499565b6104e06106f73660046138d7565b6001600160a01b031660009081526020819052604090205490565b610482611979565b600654610525906001600160a01b031681565b61048261073b366004613b62565b6119af565b6104e060115481565b610482610757366004613b62565b611a0a565b600e54610525906001600160a01b031681565b610482611a65565b610482610785366004613b62565b611aed565b610482610798366004613b62565b611b41565b6005546001600160a01b0316610525565b6104826107bc366004613a65565b611b70565b6104826107cf3660046138d7565b612078565b6104c86107e23660046139b4565b6120c4565b61048c612152565b6104826107fd366004613987565b612161565b610482610810366004613b0b565b61222c565b610482610823366004613b62565b612397565b6104e06123f2565b6104c861083e366004613a02565b612437565b6104e06124d4565b6104c8610859366004613a02565b612519565b61048261086c366004613b62565b61252f565b6104c861087f3660046138d7565b601a6020526000908152604090205460ff1681565b6104e06108a23660046138d7565b6127e5565b600b54610525906001600160a01b031681565b61048c612896565b600d54610525906001600160a01b031681565b600a54610525906001600160a01b031681565b6104826108f6366004613b62565b612971565b6104826109093660046138d7565b6129ba565b61048261091c366004613a2d565b612a06565b61048261092f366004613987565b612a62565b6104e0612ab7565b6104e0612afc565b6104e061095236600461390f565b6001600160a01b03918216600090815260016020908152604080832093909416825291909152205490565b61048c612b41565b6104826109933660046138d7565b612c1c565b6104e0612cb7565b6104e06109ae3660046138d7565b612cfc565b6104e0612d2f565b6104c8612d74565b6104826109d13660046138d7565b612df1565b6005546001600160a01b03163314610a095760405162461bcd60e51b8152600401610a0090613e7b565b60405180910390fd5b600d80546001600160a01b0319166001600160a01b0392909216919091179055565b606060038054610a3a90614097565b80601f0160208091040260200160405190810160405280929190818152602001828054610a6690614097565b8015610ab35780601f10610a8857610100808354040283529160200191610ab3565b820191906000526020600020905b815481529060010190602001808311610a9657829003601f168201915b5050505050905090565b6005546001600160a01b03163314610ae75760405162461bcd60e51b8152600401610a0090613e7b565b600f819055601454601154601054610b0d9291610b079182908690612e3d565b90612e3d565b60125550565b600033610b21818585612e49565b5060019392505050565b600033610b4a5760405162461bcd60e51b8152600401610a0090613d6b565b6006546001600160a01b03166341ac82b0336040516001600160e01b031960e084901b1681526001600160a01b03909116600482015260240160206040518083038186803b158015610b9b57600080fd5b505afa158015610baf573d6000803e3d6000fd5b505050506040513d601f19601f82011682018060405250810190610bd39190613a49565b610bef5760405162461bcd60e51b8152600401610a0090613d44565b6006546001600160a01b031663619a635e336040516001600160e01b031960e084901b1681526001600160a01b03909116600482015260240160206040518083038186803b158015610c4057600080fd5b505afa158015610c54573d6000803e3d6000fd5b505050506040513d601f19601f82011682018060405250810190610c789190613b7a565b905090565b6005546001600160a01b03163314610ca75760405162461bcd60e51b8152600401610a0090613e7b565b600b80546001600160a01b0319166001600160a01b0392909216919091179055565b606033610ce85760405162461bcd60e51b8152600401610a0090613d6b565b6006546001600160a01b03166341ac82b0336040516001600160e01b031960e084901b1681526001600160a01b03909116600482015260240160206040518083038186803b158015610d3957600080fd5b505afa158015610d4d573d6000803e3d6000fd5b505050506040513d601f19601f82011682018060405250810190610d719190613a49565b610d8d5760405162461bcd60e51b8152600401610a0090613d44565b6006546001600160a01b031663334de3a2335b6040516001600160e01b031960e084901b1681526001600160a01b03909116600482015260240160006040518083038186803b158015610ddf57600080fd5b505afa158015610df3573d6000803e3d6000fd5b505050506040513d6000823e601f3d908101601f19168201604052610c789190810190613a98565b6005546001600160a01b03163314610e455760405162461bcd60e51b8152600401610a0090613e7b565b601355565b6000610e57848484612f6d565b610b218433610e8a8560405180606001604052806028815260200161416760289139610e838a33610952565b91906131a7565b612e49565b3381610ed45760405162461bcd60e51b8152602060048201526014602482015273416d6f756e742063616e2774206265207a65726f60601b6044820152606401610a00565b6001600160a01b038116610efa5760405162461bcd60e51b8152600401610a0090613ef5565b6001600160a01b03811660009081526019602052604090205460ff1615610f335760405162461bcd60e51b8152600401610a0090613de7565b6009546001600160a01b03828116911614801590610f5f5750600a546001600160a01b03828116911614155b610f7b5760405162461bcd60e51b8152600401610a0090613e1e565b6006546040516330cd31af60e11b81526001600160a01b038381166004830152600092169063619a635e9060240160206040518083038186803b158015610fc157600080fd5b505afa158015610fd5573d6000803e3d6000fd5b505050506040513d601f19601f82011682018060405250810190610ff99190613b7a565b90508281101561101b5760405162461bcd60e51b8152600401610a0090613d99565b600a54611032906001600160a01b031683856131d3565b600654604051636a8968a760e01b81526001600160a01b0384811660048301526024820186905290911690636a8968a790604401600060405180830381600087803b15801561108057600080fd5b505af1158015611094573d6000803e3d6000fd5b50505050505050565b3360008181526001602090815260408083206001600160a01b0387168452909152812054909190610b219082908690610e8a908790614009565b6005546001600160a01b031633146111015760405162461bcd60e51b8152600401610a0090613e7b565b4781111561110c5750475b6005546040516001600160a01b039091169082156108fc029083906000818181858888f19350505050158015611146573d6000803e3d6000fd5b5050565b6005546001600160a01b031633146111745760405162461bcd60e51b8152600401610a0090613e7b565b6010819055601454601154600f54610b0d9291610b0791829086612e3d565b600654604080516345193f5560e11b815290516000926001600160a01b031691638a327eaa916004808301926020929190829003018186803b158015610c4057600080fd5b33806111f65760405162461bcd60e51b8152600401610a0090613ef5565b6001600160a01b03811660009081526019602052604090205460ff161561122f5760405162461bcd60e51b8152600401610a0090613de7565b6009546001600160a01b0382811691161480159061125b5750600a546001600160a01b03828116911614155b6112775760405162461bcd60e51b8152600401610a0090613e1e565b6006546040516330cd31af60e11b81526001600160a01b038381166004830152600092169063619a635e9060240160206040518083038186803b1580156112bd57600080fd5b505afa1580156112d1573d6000803e3d6000fd5b505050506040513d601f19601f820116820180604052508101906112f59190613b7a565b9050600081116113645760405162461bcd60e51b815260206004820152603460248201527f4d414e494120435348543a20596f7520646f6e2774206861766520656e6f75676044820152731a081c995dd85c99081d1bc818d85cda081bdd5d60621b6064820152608401610a00565b600a5461137b906001600160a01b031683836131d3565b60065460405163170a62c760e21b81526001600160a01b03848116600483015290911690635c298b1c90602401602060405180830381600087803b1580156113c257600080fd5b505af11580156113d6573d6000803e3d6000fd5b505050506040513d601f19601f820116820180604052508101906113fa9190613b7a565b505050565b6005546001600160a01b031633146114295760405162461bcd60e51b8152600401610a0090613e7b565b601680549115156101000261ff0019909216919091179055565b6005546001600160a01b0316331461146d5760405162461bcd60e51b8152600401610a0090613e7b565b600654604051631df3773160e31b8152600481018390526001600160a01b039091169063ef9bb988906024015b600060405180830381600087803b1580156114b457600080fd5b505af11580156114c8573d6000803e3d6000fd5b5050505050565b6060336114ee5760405162461bcd60e51b8152600401610a0090613d6b565b6006546001600160a01b03166341ac82b0336040516001600160e01b031960e084901b1681526001600160a01b03909116600482015260240160206040518083038186803b15801561153f57600080fd5b505afa158015611553573d6000803e3d6000fd5b505050506040513d601f19601f820116820180604052508101906115779190613a49565b6115935760405162461bcd60e51b8152600401610a0090613d44565b6006546001600160a01b0316634a389fae33610da0565b33806116065760405162461bcd60e51b815260206004820152602560248201527f435348543a20206372656174696f6e2066726f6d20746865207a65726f206164604482015264647265737360d81b6064820152608401610a00565b6001600160a01b03811660009081526019602052604090205460ff161561163f5760405162461bcd60e51b8152600401610a0090613de7565b6009546001600160a01b0382811691161480159061166b5750600a546001600160a01b03828116911614155b6116d25760405162461bcd60e51b815260206004820152603260248201527f435348543a20667574757220616e642072657761726473506f6f6c2063616e6e6044820152716f7420636173686f7574207265776172647360701b6064820152608401610a00565b6006546040516329b8573160e21b81526001600160a01b03838116600483015260248201859052600092169063a6e15cc49060440160206040518083038186803b15801561171f57600080fd5b505afa158015611733573d6000803e3d6000fd5b505050506040513d601f19601f820116820180604052508101906117579190613b7a565b9050600081116117795760405162461bcd60e51b8152600401610a0090613d99565b600a54611790906001600160a01b031683836131d3565b60065460405163376db80160e11b81526001600160a01b0384811660048301526024820186905290911690636edb700290604401602060405180830381600087803b1580156117de57600080fd5b505af11580156117f2573d6000803e3d6000fd5b505050506040513d601f19601f820116820180604052508101906118169190613b7a565b50505050565b6005546001600160a01b031633146118465760405162461bcd60e51b8152600401610a0090613e7b565b6001600160a01b03919091166000908152601b60205260409020805460ff1916911515919091179055565b6005546001600160a01b0316331461189b5760405162461bcd60e51b8152600401610a0090613e7b565b601755565b60008080336001600160a01b03166118c06005546001600160a01b031690565b6001600160a01b0316146118e65760405162461bcd60e51b8152600401610a0090613e7b565b600660009054906101000a90046001600160a01b03166001600160a01b03166388fe65536040518163ffffffff1660e01b8152600401606060405180830381600087803b15801561193657600080fd5b505af115801561194a573d6000803e3d6000fd5b505050506040513d601f19601f8201168201806040525081019061196e9190613b92565b925092509250909192565b6005546001600160a01b031633146119a35760405162461bcd60e51b8152600401610a0090613e7b565b6119ad6000613327565b565b6005546001600160a01b031633146119d95760405162461bcd60e51b8152600401610a0090613e7b565b6006546040516318df5db960e31b8152600481018390526001600160a01b039091169063c6faedc89060240161149a565b6005546001600160a01b03163314611a345760405162461bcd60e51b8152600401610a0090613e7b565b60065460405163cece91eb60e01b8152600481018390526001600160a01b039091169063cece91eb9060240161149a565b600660009054906101000a90046001600160a01b03166001600160a01b03166388fe65536040518163ffffffff1660e01b8152600401606060405180830381600087803b158015611ab557600080fd5b505af1158015611ac9573d6000803e3d6000fd5b505050506040513d601f19601f820116820180604052508101906113fa9190613b92565b6005546001600160a01b03163314611b175760405162461bcd60e51b8152600401610a0090613e7b565b80601181905550610b0d601454610b07601154610b07601054600f54612e3d90919063ffffffff16565b6005546001600160a01b03163314611b6b5760405162461bcd60e51b8152600401610a0090613e7b565b601555565b60038151118015611b82575060208151105b611bce5760405162461bcd60e51b815260206004820181905260248201527f4e4f4445204352454154494f4e3a204e414d452053495a4520494e56414c49446044820152606401610a00565b3380611c335760405162461bcd60e51b815260206004820152602e60248201527f4e4f4445204352454154494f4e3a20206372656174696f6e2066726f6d20746860448201526d65207a65726f206164647265737360901b6064820152608401610a00565b6001600160a01b03811660009081526019602052604090205460ff1615611ca75760405162461bcd60e51b815260206004820152602260248201527f4e4f4445204352454154494f4e3a20426c61636b6c6973746564206164647265604482015261737360f01b6064820152608401610a00565b6009546001600160a01b03828116911614801590611cd35750600a546001600160a01b03828116911614155b611d455760405162461bcd60e51b815260206004820152603760248201527f4e4f4445204352454154494f4e3a20667574757220616e64207265776172647360448201527f506f6f6c2063616e6e6f7420637265617465206e6f64650000000000000000006064820152608401610a00565b60065460408051631e3fd85760e31b815290516000926001600160a01b03169163f1fec2b8916004808301926020929190829003018186803b158015611d8a57600080fd5b505afa158015611d9e573d6000803e3d6000fd5b505050506040513d601f19601f82011682018060405250810190611dc29190613b7a565b905080611de4836001600160a01b031660009081526020819052604090205490565b1015611e475760405162461bcd60e51b815260206004820152602c60248201527f4e4f4445204352454154494f4e3a2042616c616e636520746f6f206c6f77206660448201526b37b91031b932b0ba34b7b71760a11b6064820152608401610a00565b3060009081526020819052604090205460175481108015908190611e725750601654610100900460ff165b8015611e81575060165460ff16155b8015611e9b57506005546001600160a01b03858116911614155b8015611ec057506001600160a01b0384166000908152601a602052604090205460ff16155b15612002576016805460ff19166001179055601154600090611ef090606490611eea908690613379565b90613385565b600954909150611f09906001600160a01b031682613391565b6000611f256064611eea600f548761337990919063ffffffff16565b90506000611f436064611eea6015548561337990919063ffffffff16565b600a54909150611f5c906001600160a01b031682613391565b600a54611f7d9030906001600160a01b0316611f7885856133e0565b6131d3565b6000611f996064611eea6010548961337990919063ffffffff16565b9050611fa4816133ec565b6000611fc06064611eea6014548a61337990919063ffffffff16565b600b54909150611fd9906001600160a01b031682613391565b30600090815260208190526040902054611ff290613473565b50506016805460ff191690555050505b61200d8430856131d3565b6006546040516312b8603f60e01b81526001600160a01b03909116906312b8603f9061203f9087908990600401613c8a565b600060405180830381600087803b15801561205957600080fd5b505af115801561206d573d6000803e3d6000fd5b505050505050505050565b6005546001600160a01b031633146120a25760405162461bcd60e51b8152600401610a0090613e7b565b600a80546001600160a01b0319166001600160a01b0392909216919091179055565b60065460405163fe58340b60e01b81526000916001600160a01b03169063fe58340b906120f990339087908790600401613c5e565b602060405180830381600087803b15801561211357600080fd5b505af1158015612127573d6000803e3d6000fd5b505050506040513d601f19601f8201168201806040525081019061214b9190613a49565b9392505050565b606060048054610a3a90614097565b6005546001600160a01b0316331461218b5760405162461bcd60e51b8152600401610a0090613e7b565b6008546001600160a01b03838116911614156122225760405162461bcd60e51b815260206004820152604a60248201527f544b4e3a205468652050616e63616b655377617020706169722063616e6e6f7460448201527f2062652072656d6f7665642066726f6d206175746f6d617465644d61726b65746064820152694d616b6572506169727360b01b608482015260a401610a00565b61114682826135c2565b6006546001600160a01b03166341ac82b0336040516001600160e01b031960e084901b1681526001600160a01b03909116600482015260240160206040518083038186803b15801561227d57600080fd5b505afa158015612291573d6000803e3d6000fd5b505050506040513d601f19601f820116820180604052508101906122b59190613a49565b6122d15760405162461bcd60e51b8152600401610a0090613d44565b600381511180156122e3575060208151105b61232f5760405162461bcd60e51b815260206004820152601e60248201527f4e4f44452052454e414d453a204e414d452053495a4520494e56414c494400006044820152606401610a00565b6006546001600160a01b0316635f3dc7043384846040518463ffffffff1660e01b815260040161236193929190613cae565b600060405180830381600087803b15801561237b57600080fd5b505af115801561238f573d6000803e3d6000fd5b505050505050565b6005546001600160a01b031633146123c15760405162461bcd60e51b8152600401610a0090613e7b565b60065460405163d1871a8960e01b8152600481018390526001600160a01b039091169063d1871a899060240161149a565b6006546040805163b8527aef60e01b815290516000926001600160a01b03169163b8527aef916004808301926020929190829003018186803b158015610c4057600080fd5b3360008181526001602090815260408083206001600160a01b0387168452909152812054909190838110156124bc5760405162461bcd60e51b815260206004820152602560248201527f45524332303a2064656372656173656420616c6c6f77616e63652062656c6f77604482015264207a65726f60d81b6064820152608401610a00565b6124c98286868403612e49565b506001949350505050565b60065460408051631e3fd85760e31b815290516000926001600160a01b03169163f1fec2b8916004808301926020929190829003018186803b158015610c4057600080fd5b6000612526338484612f6d565b50600192915050565b6000811161257f5760405162461bcd60e51b815260206004820152601a60248201527f434d50443a20416d6f756e742063616e2774206265207a65726f0000000000006044820152606401610a00565b60065460408051631e3fd85760e31b815290516000926001600160a01b03169163f1fec2b8916004808301926020929190829003018186803b1580156125c457600080fd5b505afa1580156125d8573d6000803e3d6000fd5b505050506040513d601f19601f820116820180604052508101906125fc9190613b7a565b905061260881836140ed565b1561266f5760405162461bcd60e51b815260206004820152603160248201527f434d50443a20416d6f756e74206d7573742062652061206d756c7469706c65206044820152706f6620746865206e6f646520707269636560781b6064820152608401610a00565b600061267b8284614021565b905060006060803361268b6111d8565b86612695336106f7565b10156126e35760405162461bcd60e51b815260206004820152601b60248201527f434d50443a2042616c616e6365206973206e6f7420656e6f75676800000000006044820152606401610a00565b6126ec426136ab565b60065460405163112469f960e21b81526001600160a01b038481166004830152612770921690634491a7e49060240160206040518083038186803b15801561273357600080fd5b505afa158015612747573d6000803e3d6000fd5b505050506040513d601f19601f8201168201806040525081019061276b9190613b7a565b6136ab565b604051602001612781929190613c1a565b6040516020818303038152906040529150600193505b84841161109457816127a8856136ab565b6040516020016127b9929190613beb565b60405160208183030381529060405292506127d383611b70565b836127dd816140d2565b945050612797565b6005546000906001600160a01b031633146128125760405162461bcd60e51b8152600401610a0090613e7b565b6006546040516330cd31af60e11b81526001600160a01b0384811660048301529091169063619a635e906024015b60206040518083038186803b15801561285857600080fd5b505afa15801561286c573d6000803e3d6000fd5b505050506040513d601f19601f820116820180604052508101906128909190613b7a565b92915050565b6060336128b55760405162461bcd60e51b8152600401610a0090613d6b565b6006546001600160a01b03166341ac82b0336040516001600160e01b031960e084901b1681526001600160a01b03909116600482015260240160206040518083038186803b15801561290657600080fd5b505afa15801561291a573d6000803e3d6000fd5b505050506040513d601f19601f8201168201806040525081019061293e9190613a49565b61295a5760405162461bcd60e51b8152600401610a0090613d44565b6006546001600160a01b031663c92819ce33610da0565b6005546001600160a01b0316331461299b5760405162461bcd60e51b8152600401610a0090613e7b565b6014819055601154601054600f54610b0d928492610b07928391612e3d565b6005546001600160a01b031633146129e45760405162461bcd60e51b8152600401610a0090613e7b565b600980546001600160a01b0319166001600160a01b0392909216919091179055565b6005546001600160a01b03163314612a305760405162461bcd60e51b8152600401610a0090613e7b565b600654604051636d58441560e11b815282151560048201526001600160a01b039091169063dab0882a9060240161149a565b6005546001600160a01b03163314612a8c5760405162461bcd60e51b8152600401610a0090613e7b565b6001600160a01b03919091166000908152601960205260409020805460ff1916911515919091179055565b6006546040805163fb10d6fb60e01b815290516000926001600160a01b03169163fb10d6fb916004808301926020929190829003018186803b158015610c4057600080fd5b6006546040805163613ff46f60e01b815290516000926001600160a01b03169163613ff46f916004808301926020929190829003018186803b158015610c4057600080fd5b606033612b605760405162461bcd60e51b8152600401610a0090613d6b565b6006546001600160a01b03166341ac82b0336040516001600160e01b031960e084901b1681526001600160a01b03909116600482015260240160206040518083038186803b158015612bb157600080fd5b505afa158015612bc5573d6000803e3d6000fd5b505050506040513d601f19601f82011682018060405250810190612be99190613a49565b612c055760405162461bcd60e51b8152600401610a0090613d44565b6006546001600160a01b0316635759fb0233610da0565b6005546001600160a01b03163314612c465760405162461bcd60e51b8152600401610a0090613e7b565b6001600160a01b038116612cab5760405162461bcd60e51b815260206004820152602660248201527f4f776e61626c653a206e6577206f776e657220697320746865207a65726f206160448201526564647265737360d01b6064820152608401610a00565b612cb481613327565b50565b600654604080516327b3bf1160e01b815290516000926001600160a01b0316916327b3bf11916004808301926020929190829003018186803b158015610c4057600080fd5b60065460405163112469f960e21b81526001600160a01b0383811660048301526000921690634491a7e490602401612840565b60065460408051636f60a39360e11b815290516000926001600160a01b03169163dec14726916004808301926020929190829003018186803b158015610c4057600080fd5b600654604080516385c44d9d60e01b815290516000926001600160a01b0316916385c44d9d916004808301926020929190829003018186803b158015612db957600080fd5b505afa158015612dcd573d6000803e3d6000fd5b505050506040513d601f19601f82011682018060405250810190610c789190613a49565b6005546001600160a01b03163314612e1b5760405162461bcd60e51b8152600401610a0090613e7b565b600680546001600160a01b0319166001600160a01b0392909216919091179055565b600061214b8284614009565b6001600160a01b038316612eab5760405162461bcd60e51b8152602060048201526024808201527f45524332303a20617070726f76652066726f6d20746865207a65726f206164646044820152637265737360e01b6064820152608401610a00565b6001600160a01b038216612f0c5760405162461bcd60e51b815260206004820152602260248201527f45524332303a20617070726f766520746f20746865207a65726f206164647265604482015261737360f01b6064820152608401610a00565b6001600160a01b0383811660008181526001602090815260408083209487168084529482529182902085905590518481527f8c5be1e5ebec7d5bd14f71427d1e84f3dd0314c0f7b2291e5b200ac8c7c3b925910160405180910390a3505050565b6001600160a01b038316612f935760405162461bcd60e51b8152600401610a0090613eb0565b6001600160a01b038216612fb95760405162461bcd60e51b8152600401610a0090613d01565b6001600160a01b03831660009081526019602052604090205460ff16158015612ffb57506001600160a01b03821660009081526019602052604090205460ff16155b61303d5760405162461bcd60e51b8152602060048201526013602482015272426c61636b6c6973746564206164647265737360681b6044820152606401610a00565b6001600160a01b0383166000908152601b6020526040812054819060ff1615801561308c57506007546001600160a01b038581169116148061308c57506008546001600160a01b038581169116145b156131775760065460405163041ac82b60e41b81526001600160a01b038781166004830152909116906341ac82b09060240160206040518083038186803b1580156130d657600080fd5b505afa1580156130ea573d6000803e3d6000fd5b505050506040513d601f19601f8201168201806040525081019061310e9190613a49565b61315a5760405162461bcd60e51b815260206004820152601a60248201527f437265617465206174206c65617374206f6e6520427261696e210000000000006044820152606401610a00565b6131746064611eea6013548661337990919063ffffffff16565b91505b61318183836133e0565b600d5490915061319c9086906001600160a01b0316846131d3565b6114c88585836131d3565b600081848411156131cb5760405162461bcd60e51b8152600401610a009190613cee565b505050900390565b6001600160a01b0383166131f95760405162461bcd60e51b8152600401610a0090613eb0565b6001600160a01b03821661321f5760405162461bcd60e51b8152600401610a0090613d01565b6001600160a01b038316600090815260208190526040902054818110156132975760405162461bcd60e51b815260206004820152602660248201527f45524332303a207472616e7366657220616d6f756e7420657863656564732062604482015265616c616e636560d01b6064820152608401610a00565b6001600160a01b038085166000908152602081905260408082208585039055918516815290812080548492906132ce908490614009565b92505081905550826001600160a01b0316846001600160a01b03167fddf252ad1be2c89b69c2b068fc378daa952ba7f163c4a11628f55a4df523b3ef8460405161331a91815260200190565b60405180910390a3611816565b600580546001600160a01b038381166001600160a01b0319831681179093556040519116919082907f8be0079c531659141344cd1fd0a4f28419497f9722a3daafe3b4186f6b6457e090600090a35050565b600061214b8284614035565b600061214b8284614021565b4761339b82613473565b60006133a747836133e0565b6040519091506001600160a01b0385169082156108fc029083906000818181858888f193505050501580156114c8573d6000803e3d6000fd5b600061214b8284614054565b60006133f9826002613385565b9050600061340783836133e0565b90504761341383613473565b600061341f47836133e0565b905061342b83826137cd565b60408051858152602081018390529081018490527f17bbfb9a6069321b6ded73bd96327c9e6b7212a5cd51ff219cd61370acafb5619060600160405180910390a15050505050565b60408051600280825260608201835260009260208301908036833701905050905030816000815181106134b657634e487b7160e01b600052603260045260246000fd5b6001600160a01b03928316602091820292909201810191909152600754604080516339d94ae160e11b8152905191909316926373b295c2926004808301939192829003018186803b15801561350a57600080fd5b505afa15801561351e573d6000803e3d6000fd5b505050506040513d601f19601f8201168201806040525081019061354291906138f3565b8160018151811061356357634e487b7160e01b600052603260045260246000fd5b6001600160a01b0392831660209182029290920101526007546135899130911684612e49565b600754604051633b158ab160e11b81526001600160a01b039091169063762b156290612361908590600090869030904290600401613f40565b6001600160a01b0382166000908152601a602052604090205460ff16151581151514156136575760405162461bcd60e51b815260206004820152603d60248201527f544b4e3a204175746f6d61746564206d61726b6574206d616b6572207061697260448201527f20697320616c72656164792073657420746f20746861742076616c75650000006064820152608401610a00565b6001600160a01b0382166000818152601a6020526040808220805460ff191685151590811790915590519092917fffa9187bf1f18bf477bd0ea1bcbb64e93b6a98132473929edfce215cd9b16fab91a35050565b6060816136cf5750506040805180820190915260018152600360fc1b602082015290565b8160005b81156136f957806136e3816140d2565b91506136f29050600a83614021565b91506136d3565b60008167ffffffffffffffff81111561372257634e487b7160e01b600052604160045260246000fd5b6040519080825280601f01601f19166020018201604052801561374c576020820181803683370190505b5090505b84156137c557613761600183614054565b915061376e600a866140ed565b613779906030614009565b60f81b81838151811061379c57634e487b7160e01b600052603260045260246000fd5b60200101906001600160f81b031916908160001a9053506137be600a86614021565b9450613750565b949350505050565b6007546137e59030906001600160a01b031684612e49565b600754604051637c8d9fb960e11b8152306004820152602481018490526000604482018190526064820181905260848201524260a48201526001600160a01b039091169063f91b3f7290839060c4016060604051808303818588803b15801561384d57600080fd5b505af1158015613861573d6000803e3d6000fd5b50505050506040513d601f19601f820116820180604052508101906114c89190613b92565b600082601f830112613896578081fd5b81356138a96138a482613fe1565b613fb0565b8181528460208386010111156138bd578283fd5b816020850160208301379081016020019190915292915050565b6000602082840312156138e8578081fd5b813561214b81614143565b600060208284031215613904578081fd5b815161214b81614143565b60008060408385031215613921578081fd5b823561392c81614143565b9150602083013561393c81614143565b809150509250929050565b60008060006060848603121561395b578081fd5b833561396681614143565b9250602084013561397681614143565b929592945050506040919091013590565b60008060408385031215613999578182fd5b82356139a481614143565b9150602083013561393c81614158565b600080604083850312156139c6578182fd5b82356139d181614143565b9150602083013567ffffffffffffffff8111156139ec578182fd5b6139f885828601613886565b9150509250929050565b60008060408385031215613a14578182fd5b8235613a1f81614143565b946020939093013593505050565b600060208284031215613a3e578081fd5b813561214b81614158565b600060208284031215613a5a578081fd5b815161214b81614158565b600060208284031215613a76578081fd5b813567ffffffffffffffff811115613a8c578182fd5b6137c584828501613886565b600060208284031215613aa9578081fd5b815167ffffffffffffffff811115613abf578182fd5b8201601f81018413613acf578182fd5b8051613add6138a482613fe1565b818152856020838501011115613af1578384fd5b613b0282602083016020860161406b565b95945050505050565b60008060408385031215613b1d578182fd5b823567ffffffffffffffff80821115613b34578384fd5b613b4086838701613886565b93506020850135915080821115613b55578283fd5b506139f885828601613886565b600060208284031215613b73578081fd5b5035919050565b600060208284031215613b8b578081fd5b5051919050565b600080600060608486031215613ba6578081fd5b8351925060208401519150604084015190509250925092565b60008151808452613bd781602086016020860161406b565b601f01601f19169290920160200192915050565b60008351613bfd81846020880161406b565b835190830190613c1181836020880161406b565b01949350505050565b65425241494e2d60d01b815260008351613c3b81600685016020880161406b565b835190830190613c5281600684016020880161406b565b01600601949350505050565b6001600160a01b03848116825283166020820152606060408201819052600090613b0290830184613bbf565b6001600160a01b03831681526040602082018190526000906137c590830184613bbf565b6001600160a01b0384168152606060208201819052600090613cd290830185613bbf565b8281036040840152613ce48185613bbf565b9695505050505050565b60208152600061214b6020830184613bbf565b60208082526023908201527f45524332303a207472616e7366657220746f20746865207a65726f206164647260408201526265737360e81b606082015260800190565b6020808252600d908201526c2727902727a2229027aba722a960991b604082015260600190565b60208082526014908201527353454e4445522043414e2754204245205a45524f60601b604082015260600190565b6020808252602e908201527f435348543a20596f7520646f6e2774206861766520656e6f756768207265776160408201526d1c99081d1bc818d85cda081bdd5d60921b606082015260800190565b6020808252601f908201527f4d414e494120435348543a20426c61636b6c6973746564206164647265737300604082015260600190565b60208082526038908201527f4d414e494120435348543a20667574757220616e642072657761726473506f6f60408201527f6c2063616e6e6f7420636173686f757420726577617264730000000000000000606082015260800190565b6020808252818101527f4f776e61626c653a2063616c6c6572206973206e6f7420746865206f776e6572604082015260600190565b60208082526025908201527f45524332303a207472616e736665722066726f6d20746865207a65726f206164604082015264647265737360d81b606082015260800190565b6020808252602b908201527f4d414e494120435348543a20206372656174696f6e2066726f6d20746865207a60408201526a65726f206164647265737360a81b606082015260800190565b600060a082018783526020878185015260a0604085015281875180845260c0860191508289019350845b81811015613f8f5784516001600160a01b031683529383019391830191600101613f6a565b50506001600160a01b03969096166060850152505050608001529392505050565b604051601f8201601f1916810167ffffffffffffffff81118282101715613fd957613fd961412d565b604052919050565b600067ffffffffffffffff821115613ffb57613ffb61412d565b50601f01601f191660200190565b6000821982111561401c5761401c614101565b500190565b60008261403057614030614117565b500490565b600081600019048311821515161561404f5761404f614101565b500290565b60008282101561406657614066614101565b500390565b60005b8381101561408657818101518382015260200161406e565b838111156118165750506000910152565b600181811c908216806140ab57607f821691505b602082108114156140cc57634e487b7160e01b600052602260045260246000fd5b50919050565b60006000198214156140e6576140e6614101565b5060010190565b6000826140fc576140fc614117565b500690565b634e487b7160e01b600052601160045260246000fd5b634e487b7160e01b600052601260045260246000fd5b634e487b7160e01b600052604160045260246000fd5b6001600160a01b0381168114612cb457600080fd5b8015158114612cb457600080fdfe45524332303a207472616e7366657220616d6f756e74206578636565647320616c6c6f77616e6365a2646970667358221220ae556a25e95d17d9e3bb198e5b942a2b63be156e45c74aa6fb4688932d9ad49364736f6c63430008040033",
  "devdoc": {
    "kind": "dev",
    "methods": {
      "allowance(address,address)": {
        "details": "See {IERC20-allowance}."
      },
      "approve(address,uint256)": {
        "details": "See {IERC20-approve}. NOTE: If `amount` is the maximum `uint256`, the allowance is not updated on `transferFrom`. This is semantically equivalent to an infinite approval. Requirements: - `spender` cannot be the zero address."
      },
      "balanceOf(address)": {
        "details": "See {IERC20-balanceOf}."
      },
      "decimals()": {
        "details": "Returns the number of decimals used to get its user representation. For example, if `decimals` equals `2`, a balance of `505` tokens should be displayed to a user as `5.05` (`505 / 10 ** 2`). Tokens usually opt for a value of 18, imitating the relationship between Ether and Wei. This is the value {ERC20} uses, unless this function is overridden; NOTE: This information is only used for _display_ purposes: it in no way affects any of the arithmetic of the contract, including {IERC20-balanceOf} and {IERC20-transfer}."
      },
      "decreaseAllowance(address,uint256)": {
        "details": "Atomically decreases the allowance granted to `spender` by the caller. This is an alternative to {approve} that can be used as a mitigation for problems described in {IERC20-approve}. Emits an {Approval} event indicating the updated allowance. Requirements: - `spender` cannot be the zero address. - `spender` must have allowance for the caller of at least `subtractedValue`."
      },
      "increaseAllowance(address,uint256)": {
        "details": "Atomically increases the allowance granted to `spender` by the caller. This is an alternative to {approve} that can be used as a mitigation for problems described in {IERC20-approve}. Emits an {Approval} event indicating the updated allowance. Requirements: - `spender` cannot be the zero address."
      },
      "name()": {
        "details": "Returns the name of the token."
      },
      "owner()": {
        "details": "Returns the address of the current owner."
      },
      "renounceOwnership()": {
        "details": "Leaves the contract without owner. It will not be possible to call `onlyOwner` functions anymore. Can only be called by the current owner. NOTE: Renouncing ownership will leave the contract without an owner, thereby removing any functionality that is only available to the owner."
      },
      "symbol()": {
        "details": "Returns the symbol of the token, usually a shorter version of the name."
      },
      "totalSupply()": {
        "details": "See {IERC20-totalSupply}."
      },
      "transferOwnership(address)": {
        "details": "Transfers ownership of the contract to a new account (`newOwner`). Can only be called by the current owner."
      }
    },
    "version": 1
  },
  "userdoc": {
    "kind": "user",
    "methods": {},
    "version": 1
  },
  "storageLayout": {
    "storage": [
      {
        "astId": 120,
        "contract": "contracts/EasyToken.sol:EasyToken",
        "label": "_balances",
        "offset": 0,
        "slot": "0",
        "type": "t_mapping(t_address,t_uint256)"
      },
      {
        "astId": 126,
        "contract": "contracts/EasyToken.sol:EasyToken",
        "label": "_allowances",
        "offset": 0,
        "slot": "1",
        "type": "t_mapping(t_address,t_mapping(t_address,t_uint256))"
      },
      {
        "astId": 128,
        "contract": "contracts/EasyToken.sol:EasyToken",
        "label": "_totalSupply",
        "offset": 0,
        "slot": "2",
        "type": "t_uint256"
      },
      {
        "astId": 130,
        "contract": "contracts/EasyToken.sol:EasyToken",
        "label": "_name",
        "offset": 0,
        "slot": "3",
        "type": "t_string_storage"
      },
      {
        "astId": 132,
        "contract": "contracts/EasyToken.sol:EasyToken",
        "label": "_symbol",
        "offset": 0,
        "slot": "4",
        "type": "t_string_storage"
      },
      {
        "astId": 7,
        "contract": "contracts/EasyToken.sol:EasyToken",
        "label": "_owner",
        "offset": 0,
        "slot": "5",
        "type": "t_address"
      },
      {
        "astId": 1916,
        "contract": "contracts/EasyToken.sol:EasyToken",
        "label": "nodeRewardManager",
        "offset": 0,
        "slot": "6",
        "type": "t_contract(NodeRewardController)5773"
      },
      {
        "astId": 1919,
        "contract": "contracts/EasyToken.sol:EasyToken",
        "label": "uniswapV2Router",
        "offset": 0,
        "slot": "7",
        "type": "t_contract(IJoeRouter02)6242"
      },
      {
        "astId": 1921,
        "contract": "contracts/EasyToken.sol:EasyToken",
        "label": "uniswapV2Pair",
        "offset": 0,
        "slot": "8",
        "type": "t_address"
      },
      {
        "astId": 1923,
        "contract": "contracts/EasyToken.sol:EasyToken",
        "label": "expensePool",
        "offset": 0,
        "slot": "9",
        "type": "t_address"
      },
      {
        "astId": 1925,
        "contract": "contracts/EasyToken.sol:EasyToken",
        "label": "distributionPool",
        "offset": 0,
        "slot": "10",
        "type": "t_address"
      },
      {
        "astId": 1927,
        "contract": "contracts/EasyToken.sol:EasyToken",
        "label": "marketingPool",
        "offset": 0,
        "slot": "11",
        "type": "t_address"
      },
      {
        "astId": 1929,
        "contract": "contracts/EasyToken.sol:EasyToken",
        "label": "treasuryPool",
        "offset": 0,
        "slot": "12",
        "type": "t_address"
      },
      {
        "astId": 1931,
        "contract": "contracts/EasyToken.sol:EasyToken",
        "label": "cashoutPool",
        "offset": 0,
        "slot": "13",
        "type": "t_address"
      },
      {
        "astId": 1934,
        "contract": "contracts/EasyToken.sol:EasyToken",
        "label": "deadWallet",
        "offset": 0,
        "slot": "14",
        "type": "t_address"
      },
      {
        "astId": 1936,
        "contract": "contracts/EasyToken.sol:EasyToken",
        "label": "rewardsFee",
        "offset": 0,
        "slot": "15",
        "type": "t_uint256"
      },
      {
        "astId": 1938,
        "contract": "contracts/EasyToken.sol:EasyToken",
        "label": "liquidityPoolFee",
        "offset": 0,
        "slot": "16",
        "type": "t_uint256"
      },
      {
        "astId": 1940,
        "contract": "contracts/EasyToken.sol:EasyToken",
        "label": "expenseFee",
        "offset": 0,
        "slot": "17",
        "type": "t_uint256"
      },
      {
        "astId": 1942,
        "contract": "contracts/EasyToken.sol:EasyToken",
        "label": "totalFees",
        "offset": 0,
        "slot": "18",
        "type": "t_uint256"
      },
      {
        "astId": 1944,
        "contract": "contracts/EasyToken.sol:EasyToken",
        "label": "sellFee",
        "offset": 0,
        "slot": "19",
        "type": "t_uint256"
      },
      {
        "astId": 1946,
        "contract": "contracts/EasyToken.sol:EasyToken",
        "label": "marketingFee",
        "offset": 0,
        "slot": "20",
        "type": "t_uint256"
      },
      {
        "astId": 1948,
        "contract": "contracts/EasyToken.sol:EasyToken",
        "label": "rwSwap",
        "offset": 0,
        "slot": "21",
        "type": "t_uint256"
      },
      {
        "astId": 1951,
        "contract": "contracts/EasyToken.sol:EasyToken",
        "label": "swapping",
        "offset": 0,
        "slot": "22",
        "type": "t_bool"
      },
      {
        "astId": 1954,
        "contract": "contracts/EasyToken.sol:EasyToken",
        "label": "swapLiquify",
        "offset": 1,
        "slot": "22",
        "type": "t_bool"
      },
      {
        "astId": 1961,
        "contract": "contracts/EasyToken.sol:EasyToken",
        "label": "swapTokensAmount",
        "offset": 0,
        "slot": "23",
        "type": "t_uint256"
      },
      {
        "astId": 1971,
        "contract": "contracts/EasyToken.sol:EasyToken",
        "label": "TOTAL_SUPPLY",
        "offset": 0,
        "slot": "24",
        "type": "t_uint256"
      },
      {
        "astId": 1975,
        "contract": "contracts/EasyToken.sol:EasyToken",
        "label": "_isBlacklisted",
        "offset": 0,
        "slot": "25",
        "type": "t_mapping(t_address,t_bool)"
      },
      {
        "astId": 1979,
        "contract": "contracts/EasyToken.sol:EasyToken",
        "label": "automatedMarketMakerPairs",
        "offset": 0,
        "slot": "26",
        "type": "t_mapping(t_address,t_bool)"
      },
      {
        "astId": 1983,
        "contract": "contracts/EasyToken.sol:EasyToken",
        "label": "_isExcludedFromFee",
        "offset": 0,
        "slot": "27",
        "type": "t_mapping(t_address,t_bool)"
      }
    ],
    "types": {
      "t_address": {
        "encoding": "inplace",
        "label": "address",
        "numberOfBytes": "20"
      },
      "t_bool": {
        "encoding": "inplace",
        "label": "bool",
        "numberOfBytes": "1"
      },
      "t_contract(IJoeRouter02)6242": {
        "encoding": "inplace",
        "label": "contract IJoeRouter02",
        "numberOfBytes": "20"
      },
      "t_contract(NodeRewardController)5773": {
        "encoding": "inplace",
        "label": "contract NodeRewardController",
        "numberOfBytes": "20"
      },
      "t_mapping(t_address,t_bool)": {
        "encoding": "mapping",
        "key": "t_address",
        "label": "mapping(address => bool)",
        "numberOfBytes": "32",
        "value": "t_bool"
      },
      "t_mapping(t_address,t_mapping(t_address,t_uint256))": {
        "encoding": "mapping",
        "key": "t_address",
        "label": "mapping(address => mapping(address => uint256))",
        "numberOfBytes": "32",
        "value": "t_mapping(t_address,t_uint256)"
      },
      "t_mapping(t_address,t_uint256)": {
        "encoding": "mapping",
        "key": "t_address",
        "label": "mapping(address => uint256)",
        "numberOfBytes": "32",
        "value": "t_uint256"
      },
      "t_string_storage": {
        "encoding": "bytes",
        "label": "string",
        "numberOfBytes": "32"
      },
      "t_uint256": {
        "encoding": "inplace",
        "label": "uint256",
        "numberOfBytes": "32"
      }
    }
  }
}